{
  "contractName": "Election",
  "abi": [
    {
      "constant": true,
      "inputs": [],
      "name": "candidatesCount",
      "outputs": [
        {
          "name": "",
          "type": "uint256"
        }
      ],
      "payable": false,
      "stateMutability": "view",
      "type": "function"
    },
    {
      "constant": true,
      "inputs": [],
      "name": "endTime",
      "outputs": [
        {
          "name": "",
          "type": "uint256"
        }
      ],
      "payable": false,
      "stateMutability": "view",
      "type": "function"
    },
    {
      "constant": true,
      "inputs": [
        {
          "name": "",
          "type": "uint256"
        }
      ],
      "name": "candidates",
      "outputs": [
        {
          "name": "candidateId",
          "type": "uint256"
        },
        {
          "name": "name",
          "type": "string"
        }
      ],
      "payable": false,
      "stateMutability": "view",
      "type": "function"
    },
    {
      "constant": true,
      "inputs": [],
      "name": "startTime",
      "outputs": [
        {
          "name": "",
          "type": "uint256"
        }
      ],
      "payable": false,
      "stateMutability": "view",
      "type": "function"
    },
    {
      "constant": true,
      "inputs": [],
      "name": "topic",
      "outputs": [
        {
          "name": "",
          "type": "string"
        }
      ],
      "payable": false,
      "stateMutability": "view",
      "type": "function"
    },
    {
      "constant": true,
      "inputs": [],
      "name": "admin",
      "outputs": [
        {
          "name": "",
          "type": "address"
        }
      ],
      "payable": false,
      "stateMutability": "view",
      "type": "function"
    },
    {
      "inputs": [],
      "payable": false,
      "stateMutability": "nonpayable",
      "type": "constructor"
    },
    {
      "anonymous": false,
      "inputs": [
        {
          "indexed": false,
          "name": "_voterAddress",
          "type": "address"
        }
      ],
      "name": "voterRegistered",
      "type": "event"
    },
    {
      "anonymous": false,
      "inputs": [
        {
          "indexed": false,
          "name": "_voterAddress",
          "type": "address"
        }
      ],
      "name": "voteCasted",
      "type": "event"
    },
    {
      "constant": true,
      "inputs": [],
      "name": "isAdmin",
      "outputs": [
        {
          "name": "",
          "type": "bool"
        }
      ],
      "payable": false,
      "stateMutability": "view",
      "type": "function"
    },
    {
      "constant": true,
      "inputs": [],
      "name": "isVoterRegistered",
      "outputs": [
        {
          "name": "",
          "type": "bool"
        }
      ],
      "payable": false,
      "stateMutability": "view",
      "type": "function"
    },
    {
      "constant": true,
      "inputs": [],
      "name": "getCurrentVoter",
      "outputs": [
        {
          "name": "",
          "type": "address"
        },
        {
          "name": "",
          "type": "string"
        },
        {
          "name": "",
          "type": "bool"
        },
        {
          "name": "",
          "type": "bool"
        },
        {
          "name": "",
          "type": "uint256"
        }
      ],
      "payable": false,
      "stateMutability": "view",
      "type": "function"
    },
    {
      "constant": false,
      "inputs": [
        {
          "name": "_name",
          "type": "string"
        }
      ],
      "name": "addVoter",
      "outputs": [],
      "payable": false,
      "stateMutability": "nonpayable",
      "type": "function"
    },
    {
      "constant": false,
      "inputs": [
        {
          "name": "_candidateId",
          "type": "uint256"
        }
      ],
      "name": "vote",
      "outputs": [],
      "payable": false,
      "stateMutability": "nonpayable",
      "type": "function"
    },
    {
      "constant": true,
      "inputs": [
        {
          "name": "_candidateId",
          "type": "uint256"
        }
      ],
      "name": "getVoteCountFor",
      "outputs": [
        {
          "name": "",
          "type": "uint256"
        },
        {
          "name": "",
          "type": "string"
        }
      ],
      "payable": false,
      "stateMutability": "view",
      "type": "function"
    },
    {
      "constant": true,
      "inputs": [],
      "name": "getWinningCandidate",
      "outputs": [
        {
          "name": "",
          "type": "uint256"
        },
        {
          "name": "",
          "type": "string"
        },
        {
          "name": "",
          "type": "uint256"
        }
      ],
      "payable": false,
      "stateMutability": "view",
      "type": "function"
    }
  ],
  "bytecode": "0x60806040523480156200001157600080fd5b50336000806101000a81548173ffffffffffffffffffffffffffffffffffffffff021916908373ffffffffffffffffffffffffffffffffffffffff1602179055504260028190555061012c60025401600381905550606060405190810160405280602781526020017f57686f2073686f756c6420626520746865205072696d65204d696e697374657281526020017f2832303139293f0000000000000000000000000000000000000000000000000081525060019080519060200190620000da92919062000315565b506040805190810160405280600181526020016040805190810160405280600c81526020017f526168756c2047616e64686900000000000000000000000000000000000000008152508152506006600060018152602001908152602001600020600082015181600001556020820151816001019080519060200190620001629291906200039c565b509050506040805190810160405280600281526020016040805190810160405280600d81526020017f4e6172656e647261204d6f6469000000000000000000000000000000000000008152508152506006600060028152602001908152602001600020600082015181600001556020820151816001019080519060200190620001ed9291906200039c565b509050506040805190810160405280600381526020016040805190810160405280600f81526020017f417276696e64204b656a726977616c00000000000000000000000000000000008152508152506006600060038152602001908152602001600020600082015181600001556020820151816001019080519060200190620002789291906200039c565b509050506040805190810160405280600481526020016040805190810160405280600e81526020017f416b68696c6573682059616461760000000000000000000000000000000000008152508152506006600060048152602001908152602001600020600082015181600001556020820151816001019080519060200190620003039291906200039c565b5090505060046005819055506200044b565b828054600181600116156101000203166002900490600052602060002090601f016020900481019282601f106200035857805160ff191683800117855562000389565b8280016001018555821562000389579182015b82811115620003885782518255916020019190600101906200036b565b5b50905062000398919062000423565b5090565b828054600181600116156101000203166002900490600052602060002090601f016020900481019282601f10620003df57805160ff191683800117855562000410565b8280016001018555821562000410579182015b828111156200040f578251825591602001919060010190620003f2565b5b5090506200041f919062000423565b5090565b6200044891905b80821115620004445760008160009055506001016200042a565b5090565b90565b6110d3806200045b6000396000f3006080604052600436106100c5576000357c0100000000000000000000000000000000000000000000000000000000900463ffffffff1680630121b93f146100ca5780632d35a8a2146100f75780633197cbb6146101225780633477ee2e1461014d57806360dc22ee146101fa578063650e4b031461022957806378e97925146103095780638dc2755c14610334578063aca84892146103e1578063b6db75a01461044a578063bf63a57714610479578063f851a44014610509578063f927cc2914610560575b600080fd5b3480156100d657600080fd5b506100f5600480360381019080803590602001909291905050506105fe565b005b34801561010357600080fd5b5061010c6107f0565b6040518082815260200191505060405180910390f35b34801561012e57600080fd5b506101376107f6565b6040518082815260200191505060405180910390f35b34801561015957600080fd5b50610178600480360381019080803590602001909291905050506107fc565b6040518083815260200180602001828103825283818151815260200191508051906020019080838360005b838110156101be5780820151818401526020810190506101a3565b50505050905090810190601f1680156101eb5780820380516001836020036101000a031916815260200191505b50935050505060405180910390f35b34801561020657600080fd5b5061020f6108b8565b604051808215151515815260200191505060405180910390f35b34801561023557600080fd5b5061023e61090f565b604051808673ffffffffffffffffffffffffffffffffffffffff1673ffffffffffffffffffffffffffffffffffffffff168152602001806020018515151515815260200184151515158152602001838152602001828103825286818151815260200191508051906020019080838360005b838110156102ca5780820151818401526020810190506102af565b50505050905090810190601f1680156102f75780820380516001836020036101000a031916815260200191505b50965050505050505060405180910390f35b34801561031557600080fd5b5061031e610ad3565b6040518082815260200191505060405180910390f35b34801561034057600080fd5b5061035f60048036038101908080359060200190929190505050610ad9565b6040518083815260200180602001828103825283818151815260200191508051906020019080838360005b838110156103a557808201518184015260208101905061038a565b50505050905090810190601f1680156103d25780820380516001836020036101000a031916815260200191505b50935050505060405180910390f35b3480156103ed57600080fd5b50610448600480360381019080803590602001908201803590602001908080601f0160208091040260200160405190810160405280939291908181526020018383808284378201915050505050509192919290505050610bbc565b005b34801561045657600080fd5b5061045f610d69565b604051808215151515815260200191505060405180910390f35b34801561048557600080fd5b5061048e610dc0565b6040518080602001828103825283818151815260200191508051906020019080838360005b838110156104ce5780820151818401526020810190506104b3565b50505050905090810190601f1680156104fb5780820380516001836020036101000a031916815260200191505b509250505060405180910390f35b34801561051557600080fd5b5061051e610e5e565b604051808273ffffffffffffffffffffffffffffffffffffffff1673ffffffffffffffffffffffffffffffffffffffff16815260200191505060405180910390f35b34801561056c57600080fd5b50610575610e83565b6040518084815260200180602001838152602001828103825284818151815260200191508051906020019080838360005b838110156105c15780820151818401526020810190506105a6565b50505050905090810190601f1680156105ee5780820380516001836020036101000a031916815260200191505b5094505050505060405180910390f35b600860003373ffffffffffffffffffffffffffffffffffffffff1673ffffffffffffffffffffffffffffffffffffffff16815260200190815260200160002060020160019054906101000a900460ff16151561065957600080fd5b6003544210151561066957600080fd5b600860003373ffffffffffffffffffffffffffffffffffffffff1673ffffffffffffffffffffffffffffffffffffffff16815260200190815260200160002060020160009054906101000a900460ff161515156106c557600080fd5b60046000828152602001908152602001600020600081548092919060010191905055506001600860003373ffffffffffffffffffffffffffffffffffffffff1673ffffffffffffffffffffffffffffffffffffffff16815260200190815260200160002060020160006101000a81548160ff02191690831515021790555080600860003373ffffffffffffffffffffffffffffffffffffffff1673ffffffffffffffffffffffffffffffffffffffff168152602001908152602001600020600301819055507f7fe1f3a58eee874cedc684b4668fe1a8e0762aba9fb2f44a7205c15d6a04a95c33604051808273ffffffffffffffffffffffffffffffffffffffff1673ffffffffffffffffffffffffffffffffffffffff16815260200191505060405180910390a150565b60055481565b60035481565b6006602052806000526040600020600091509050806000015490806001018054600181600116156101000203166002900480601f0160208091040260200160405190810160405280929190818152602001828054600181600116156101000203166002900480156108ae5780601f10610883576101008083540402835291602001916108ae565b820191906000526020600020905b81548152906001019060200180831161089157829003601f168201915b5050505050905082565b6000600860003373ffffffffffffffffffffffffffffffffffffffff1673ffffffffffffffffffffffffffffffffffffffff16815260200190815260200160002060020160019054906101000a900460ff16905090565b600060606000806000610920610fb8565b600860003373ffffffffffffffffffffffffffffffffffffffff1673ffffffffffffffffffffffffffffffffffffffff16815260200190815260200160002060a060405190810160405290816000820160009054906101000a900473ffffffffffffffffffffffffffffffffffffffff1673ffffffffffffffffffffffffffffffffffffffff1673ffffffffffffffffffffffffffffffffffffffff168152602001600182018054600181600116156101000203166002900480601f016020809104026020016040519081016040528092919081815260200182805460018160011615610100020316600290048015610a5a5780601f10610a2f57610100808354040283529160200191610a5a565b820191906000526020600020905b815481529060010190602001808311610a3d57829003601f168201915b505050505081526020016002820160009054906101000a900460ff161515151581526020016002820160019054906101000a900460ff1615151515815260200160038201548152505090508060000151816020015182604001518360600151846080015183935095509550955095509550509091929394565b60025481565b6000606060035442111515610aed57600080fd5b600460008481526020019081526020016000205460066000858152602001908152602001600020600101808054600181600116156101000203166002900480601f016020809104026020016040519081016040528092919081815260200182805460018160011615610100020316600290048015610bac5780601f10610b8157610100808354040283529160200191610bac565b820191906000526020600020905b815481529060010190602001808311610b8f57829003601f168201915b5050505050905091509150915091565b60076000815480929190600101919050555060a0604051908101604052803373ffffffffffffffffffffffffffffffffffffffff1681526020018281526020016000151581526020016001151581526020016000815250600860003373ffffffffffffffffffffffffffffffffffffffff1673ffffffffffffffffffffffffffffffffffffffff16815260200190815260200160002060008201518160000160006101000a81548173ffffffffffffffffffffffffffffffffffffffff021916908373ffffffffffffffffffffffffffffffffffffffff1602179055506020820151816001019080519060200190610cb5929190611002565b5060408201518160020160006101000a81548160ff02191690831515021790555060608201518160020160016101000a81548160ff021916908315150217905550608082015181600301559050507f387e3d20b36ce3254acb134e913909d19062c2c475ffa1734569bc795869da1033604051808273ffffffffffffffffffffffffffffffffffffffff1673ffffffffffffffffffffffffffffffffffffffff16815260200191505060405180910390a150565b60008060009054906101000a900473ffffffffffffffffffffffffffffffffffffffff1673ffffffffffffffffffffffffffffffffffffffff163373ffffffffffffffffffffffffffffffffffffffff1614905090565b60018054600181600116156101000203166002900480601f016020809104026020016040519081016040528092919081815260200182805460018160011615610100020316600290048015610e565780601f10610e2b57610100808354040283529160200191610e56565b820191906000526020600020905b815481529060010190602001808311610e3957829003601f168201915b505050505081565b6000809054906101000a900473ffffffffffffffffffffffffffffffffffffffff1681565b6000606060008060008060035442111515610e9d57600080fd5b6000925060009150600090505b600554811015610ef6576004600082815260200190815260200160002054831015610ee957600460008281526020019081526020016000205492508091505b8080600101915050610eaa565b816006600084815260200190815260200160002060010184818054600181600116156101000203166002900480601f016020809104026020016040519081016040528092919081815260200182805460018160011615610100020316600290048015610fa35780601f10610f7857610100808354040283529160200191610fa3565b820191906000526020600020905b815481529060010190602001808311610f8657829003601f168201915b50505050509150955095509550505050909192565b60a060405190810160405280600073ffffffffffffffffffffffffffffffffffffffff16815260200160608152602001600015158152602001600015158152602001600081525090565b828054600181600116156101000203166002900490600052602060002090601f016020900481019282601f1061104357805160ff1916838001178555611071565b82800160010185558215611071579182015b82811115611070578251825591602001919060010190611055565b5b50905061107e9190611082565b5090565b6110a491905b808211156110a0576000816000905550600101611088565b5090565b905600a165627a7a72305820753f711c12e23c59d500ba079a3bcdc4d6e01195a0310cd5224c3536253c91260029",
  "source": "pragma solidity ^0.4.22;\n\ncontract Election {\n\n  address public admin;\n  string public topic;\n  uint public startTime;\n  uint public endTime;\n  struct Candidate {\n    uint candidateId; // candidateId starts from index 1\n    string name;\n  }\n  mapping(uint => uint) private voteCount;\n  uint public candidatesCount;\n  mapping(uint => Candidate) public candidates;\n  struct Voter {\n    address voterAddress;\n    string name;\n    bool voted;\n    bool registered; // to check if this voter has registered\n    uint candidateId;\n  }\n  uint private votersCount;\n  mapping(address => Voter) private voters;\n\n  constructor() public {\n    admin = msg.sender;\n    startTime = now;\n    endTime = startTime + 5 minutes;\n    topic = 'Who should be the Prime Minister(2019)?';\n    candidates[1] = Candidate(1, 'Rahul Gandhi');\n    candidates[2] = Candidate(2, 'Narendra Modi');\n    candidates[3] = Candidate(3, 'Arvind Kejriwal');\n    candidates[4] = Candidate(4, 'Akhilesh Yadav');\n    candidatesCount = 4;\n  }\n\n  modifier adminOnly() {\n    require(admin == msg.sender);\n    _;\n  }\n\n  modifier registeredVotersOnly() {\n    require(voters[msg.sender].registered);\n    _;\n  }\n\n  modifier withinTimeLimit() {\n    require(now < endTime);\n    _;\n  }\n\n  modifier afterTimeLimit() {\n    require(now > endTime);\n    _;\n  }\n\n  event voterRegistered(address _voterAddress);\n\n  event voteCasted(address _voterAddress);\n\n  function isAdmin() public view returns(bool) {\n    return (msg.sender == admin);\n  }\n\n  function isVoterRegistered() public view returns(bool) {\n    return (voters[msg.sender].registered);\n  }\n\n  function getCurrentVoter() public view returns (address, string memory, bool, bool, uint) {\n    Voter memory voter = voters[msg.sender];\n    return(voter.voterAddress, voter.name, voter.voted, voter.registered, voter.candidateId);\n  }\n\n  function addVoter(string memory _name) public {\n    votersCount++;\n    voters[msg.sender] = Voter(msg.sender, _name, false, true, 0);\n    emit voterRegistered(msg.sender);\n  }\n\n  // main voting function takes your selected candidate id and increments their vote count \n  function vote(uint _candidateId) public registeredVotersOnly withinTimeLimit{\n    require(!voters[msg.sender].voted);\n    voteCount[_candidateId]++;\n    voters[msg.sender].voted = true;\n    voters[msg.sender].candidateId = _candidateId;\n    emit voteCasted(msg.sender);\n  }\n\n  function getVoteCountFor(uint _candidateId) public view afterTimeLimit returns(uint, string memory) {\n    return (voteCount[_candidateId], candidates[_candidateId].name);\n  }\n\n  // returns (id, name, voteCount) of the winning candidate\n  function getWinningCandidate() public view afterTimeLimit returns (uint, string memory, uint) {\n    uint maxVote = 0;\n    uint maxVoteCandidateId = 0;\n    for(uint i = 0; i<candidatesCount; i++) {\n      if(maxVote < voteCount[i]) {\n        maxVote = voteCount[i];\n        maxVoteCandidateId = i;\n      }\n    }  \n    return (maxVoteCandidateId, candidates[maxVoteCandidateId].name, maxVote);\n  }\n}\n",
  "sourcePath": "E:\\Ethereum Projects\\EthereumVoting\\contracts\\Election.sol",
  "compiler": {
    "name": "solc",
    "version": "0.4.24+commit.e67f0147.Emscripten.clang"
  },
  "schemaVersion": "2.0.1",
  "updatedAt": "2018-12-10T05:36:51.481Z"
}